{
  "contractName": "AuctionHouse",
  "abi": [
    {
      "inputs": [],
      "payable": false,
      "stateMutability": "nonpayable",
      "type": "constructor"
    },
    {
      "constant": true,
      "inputs": [],
      "name": "auctionCount",
      "outputs": [
        {
          "internalType": "uint256",
          "name": "",
          "type": "uint256"
        }
      ],
      "payable": false,
      "stateMutability": "view",
      "type": "function"
    },
    {
      "constant": true,
      "inputs": [
        {
          "internalType": "address",
          "name": "",
          "type": "address"
        }
      ],
      "name": "auctionWinners",
      "outputs": [
        {
          "internalType": "bool",
          "name": "",
          "type": "bool"
        }
      ],
      "payable": false,
      "stateMutability": "view",
      "type": "function"
    },
    {
      "constant": true,
      "inputs": [
        {
          "internalType": "uint256",
          "name": "",
          "type": "uint256"
        }
      ],
      "name": "auctions",
      "outputs": [
        {
          "internalType": "string",
          "name": "itemName",
          "type": "string"
        },
        {
          "internalType": "address payable",
          "name": "leadingBidder",
          "type": "address"
        },
        {
          "internalType": "address payable",
          "name": "auctionCreator",
          "type": "address"
        },
        {
          "internalType": "uint256",
          "name": "bid",
          "type": "uint256"
        },
        {
          "internalType": "uint256",
          "name": "total",
          "type": "uint256"
        },
        {
          "internalType": "uint256",
          "name": "h",
          "type": "uint256"
        },
        {
          "internalType": "uint256",
          "name": "m",
          "type": "uint256"
        },
        {
          "internalType": "uint256",
          "name": "s",
          "type": "uint256"
        },
        {
          "internalType": "bool",
          "name": "completed",
          "type": "bool"
        }
      ],
      "payable": false,
      "stateMutability": "view",
      "type": "function"
    },
    {
      "constant": true,
      "inputs": [
        {
          "internalType": "address",
          "name": "",
          "type": "address"
        }
      ],
      "name": "bidders",
      "outputs": [
        {
          "internalType": "uint256",
          "name": "",
          "type": "uint256"
        }
      ],
      "payable": false,
      "stateMutability": "view",
      "type": "function"
    },
    {
      "constant": true,
      "inputs": [],
      "name": "manager",
      "outputs": [
        {
          "internalType": "address",
          "name": "",
          "type": "address"
        }
      ],
      "payable": false,
      "stateMutability": "view",
      "type": "function"
    },
    {
      "constant": true,
      "inputs": [
        {
          "internalType": "uint256",
          "name": "",
          "type": "uint256"
        }
      ],
      "name": "pastAuctions",
      "outputs": [
        {
          "internalType": "string",
          "name": "itemName",
          "type": "string"
        },
        {
          "internalType": "address payable",
          "name": "leadingBidder",
          "type": "address"
        },
        {
          "internalType": "address payable",
          "name": "auctionCreator",
          "type": "address"
        },
        {
          "internalType": "uint256",
          "name": "bid",
          "type": "uint256"
        },
        {
          "internalType": "uint256",
          "name": "total",
          "type": "uint256"
        },
        {
          "internalType": "uint256",
          "name": "h",
          "type": "uint256"
        },
        {
          "internalType": "uint256",
          "name": "m",
          "type": "uint256"
        },
        {
          "internalType": "uint256",
          "name": "s",
          "type": "uint256"
        },
        {
          "internalType": "bool",
          "name": "completed",
          "type": "bool"
        }
      ],
      "payable": false,
      "stateMutability": "view",
      "type": "function"
    },
    {
      "constant": false,
      "inputs": [
        {
          "internalType": "string",
          "name": "name",
          "type": "string"
        },
        {
          "internalType": "uint256",
          "name": "bidStart",
          "type": "uint256"
        },
        {
          "internalType": "uint256",
          "name": "shours",
          "type": "uint256"
        },
        {
          "internalType": "uint256",
          "name": "sminutes",
          "type": "uint256"
        },
        {
          "internalType": "uint256",
          "name": "sseconds",
          "type": "uint256"
        }
      ],
      "name": "createAuction",
      "outputs": [],
      "payable": false,
      "stateMutability": "nonpayable",
      "type": "function"
    },
    {
      "constant": false,
      "inputs": [
        {
          "internalType": "uint256",
          "name": "auctionID",
          "type": "uint256"
        },
        {
          "internalType": "address payable",
          "name": "winner",
          "type": "address"
        }
      ],
      "name": "setAuctionWinner",
      "outputs": [],
      "payable": false,
      "stateMutability": "nonpayable",
      "type": "function"
    },
    {
      "constant": true,
      "inputs": [
        {
          "internalType": "uint256",
          "name": "auctionID",
          "type": "uint256"
        }
      ],
      "name": "getLastSoldVal",
      "outputs": [
        {
          "internalType": "uint256",
          "name": "",
          "type": "uint256"
        }
      ],
      "payable": false,
      "stateMutability": "view",
      "type": "function"
    },
    {
      "constant": true,
      "inputs": [
        {
          "internalType": "uint256",
          "name": "auctionID",
          "type": "uint256"
        }
      ],
      "name": "viewPreviousAuction",
      "outputs": [
        {
          "internalType": "string",
          "name": "name",
          "type": "string"
        },
        {
          "internalType": "uint256",
          "name": "bid",
          "type": "uint256"
        },
        {
          "internalType": "uint256",
          "name": "hour",
          "type": "uint256"
        },
        {
          "internalType": "uint256",
          "name": "minute",
          "type": "uint256"
        },
        {
          "internalType": "uint256",
          "name": "second",
          "type": "uint256"
        },
        {
          "internalType": "uint256",
          "name": "id",
          "type": "uint256"
        },
        {
          "internalType": "bool",
          "name": "completed",
          "type": "bool"
        }
      ],
      "payable": false,
      "stateMutability": "view",
      "type": "function"
    },
    {
      "constant": true,
      "inputs": [],
      "name": "getAuctionCount",
      "outputs": [
        {
          "internalType": "uint256",
          "name": "",
          "type": "uint256"
        }
      ],
      "payable": false,
      "stateMutability": "view",
      "type": "function"
    },
    {
      "constant": false,
      "inputs": [
        {
          "internalType": "uint256",
          "name": "auctionID",
          "type": "uint256"
        },
        {
          "internalType": "uint256",
          "name": "bidValue",
          "type": "uint256"
        }
      ],
      "name": "placeBid",
      "outputs": [],
      "payable": true,
      "stateMutability": "payable",
      "type": "function"
    },
    {
      "constant": false,
      "inputs": [
        {
          "internalType": "uint256",
          "name": "auctionID",
          "type": "uint256"
        },
        {
          "internalType": "uint256",
          "name": "hs",
          "type": "uint256"
        },
        {
          "internalType": "uint256",
          "name": "ms",
          "type": "uint256"
        },
        {
          "internalType": "uint256",
          "name": "ss",
          "type": "uint256"
        }
      ],
      "name": "updateTime",
      "outputs": [],
      "payable": false,
      "stateMutability": "nonpayable",
      "type": "function"
    }
  ],
  "bytecode": "0x608060405234801561001057600080fd5b5033600560006101000a81548173ffffffffffffffffffffffffffffffffffffffff021916908373ffffffffffffffffffffffffffffffffffffffff160217905550611c21806100616000396000f3fe6080604052600436106100c25760003560e01c806357c90de51161007f578063c44e664011610059578063c44e66401461028f578063e8fd3b0f146102ba578063f3464d76146102e3578063fcc8f79314610326576100c2565b806357c90de5146101f157806390cb03931461020d578063a729e1a11461024a576100c2565b80630a71450b146100c75780632ad715731461010457806339c2607d1461012f578063481c6a7514610158578063498aa49b14610183578063571a26a0146101ac575b600080fd5b3480156100d357600080fd5b506100ee60048036036100e99190810190611561565b610363565b6040516100fb91906118cc565b60405180910390f35b34801561011057600080fd5b50610119610383565b6040516101269190611a51565b60405180910390f35b34801561013b57600080fd5b5061015660048036036101519190810190611642565b610389565b005b34801561016457600080fd5b5061016d61090a565b60405161017a91906118b1565b60405180910390f35b34801561018f57600080fd5b506101aa60048036036101a5919081019061158a565b610930565b005b3480156101b857600080fd5b506101d360048036036101ce9190810190611619565b610af3565b6040516101e89998979695949392919061195d565b60405180910390f35b61020b6004803603610206919081019061167e565b610c33565b005b34801561021957600080fd5b50610234600480360361022f9190810190611619565b610e03565b6040516102419190611a51565b60405180910390f35b34801561025657600080fd5b50610271600480360361026c9190810190611619565b610e9d565b6040516102869998979695949392919061195d565b60405180910390f35b34801561029b57600080fd5b506102a4610fdd565b6040516102b19190611a51565b60405180910390f35b3480156102c657600080fd5b506102e160048036036102dc91908101906116ba565b610fe7565b005b3480156102ef57600080fd5b5061030a60048036036103059190810190611619565b611056565b60405161031d97969594939291906118e7565b60405180910390f35b34801561033257600080fd5b5061034d60048036036103489190810190611561565b6111dd565b60405161035a9190611a51565b60405180910390f35b60036020528060005260406000206000915054906101000a900460ff1681565b60045481565b600015156000838154811061039a57fe5b906000526020600020906009020160080160009054906101000a900460ff161515146103fb576040517f08c379a00000000000000000000000000000000000000000000000000000000081526004016103f290611a31565b60405180910390fd5b806000838154811061040957fe5b906000526020600020906009020160010160006101000a81548173ffffffffffffffffffffffffffffffffffffffff021916908373ffffffffffffffffffffffffffffffffffffffff1602179055506001600360008373ffffffffffffffffffffffffffffffffffffffff1673ffffffffffffffffffffffffffffffffffffffff16815260200190815260200160002060006101000a81548160ff0219169083151502179055506001600083815481106104bf57fe5b906000526020600020906009020160080160006101000a81548160ff0219169083151502179055506001600083815481106104f657fe5b906000526020600020906009020190806001815401808255809150509060018203906000526020600020906009020160009091929091909150600082018160000190805460018160011615610100020316600290046105569291906111f5565b506001820160009054906101000a900473ffffffffffffffffffffffffffffffffffffffff168160010160006101000a81548173ffffffffffffffffffffffffffffffffffffffff021916908373ffffffffffffffffffffffffffffffffffffffff1602179055506002820160009054906101000a900473ffffffffffffffffffffffffffffffffffffffff168160020160006101000a81548173ffffffffffffffffffffffffffffffffffffffff021916908373ffffffffffffffffffffffffffffffffffffffff16021790555060038201548160030155600482015481600401556005820154816005015560068201548160060155600782015481600701556008820160009054906101000a900460ff168160080160006101000a81548160ff02191690831515021790555050505060006001600080549050038154811061069c57fe5b9060005260206000209060090201600083815481106106b757fe5b9060005260206000209060090201600082018160000190805460018160011615610100020316600290046106ec9291906111f5565b506001820160009054906101000a900473ffffffffffffffffffffffffffffffffffffffff168160010160006101000a81548173ffffffffffffffffffffffffffffffffffffffff021916908373ffffffffffffffffffffffffffffffffffffffff1602179055506002820160009054906101000a900473ffffffffffffffffffffffffffffffffffffffff168160020160006101000a81548173ffffffffffffffffffffffffffffffffffffffff021916908373ffffffffffffffffffffffffffffffffffffffff16021790555060038201548160030155600482015481600401556005820154816005015560068201548160060155600782015481600701556008820160009054906101000a900460ff168160080160006101000a81548160ff02191690831515021790555090505060006001600080549050038154811061083257fe5b906000526020600020906009020160008082016000610851919061127c565b6001820160006101000a81549073ffffffffffffffffffffffffffffffffffffffff02191690556002820160006101000a81549073ffffffffffffffffffffffffffffffffffffffff0219169055600382016000905560048201600090556005820160009055600682016000905560078201600090556008820160006101000a81549060ff0219169055505060008054809190600190036108f291906112c4565b50600460008154809291906001900391905055505050565b600560009054906101000a900473ffffffffffffffffffffffffffffffffffffffff1681565b6109386112f6565b6040518061012001604052808781526020013373ffffffffffffffffffffffffffffffffffffffff1681526020013373ffffffffffffffffffffffffffffffffffffffff168152602001868152602001600081526020018581526020018481526020018381526020016000151581525090506000819080600181540180825580915050906001820390600052602060002090600902016000909192909190915060008201518160000190805190602001906109f4929190611370565b5060208201518160010160006101000a81548173ffffffffffffffffffffffffffffffffffffffff021916908373ffffffffffffffffffffffffffffffffffffffff16021790555060408201518160020160006101000a81548173ffffffffffffffffffffffffffffffffffffffff021916908373ffffffffffffffffffffffffffffffffffffffff160217905550606082015181600301556080820151816004015560a0820151816005015560c0820151816006015560e082015181600701556101008201518160080160006101000a81548160ff021916908315150217905550505050600460008154809291906001019190505550505050505050565b60008181548110610b0057fe5b9060005260206000209060090201600091509050806000018054600181600116156101000203166002900480601f016020809104026020016040519081016040528092919081815260200182805460018160011615610100020316600290048015610bac5780601f10610b8157610100808354040283529160200191610bac565b820191906000526020600020905b815481529060010190602001808311610b8f57829003601f168201915b5050505050908060010160009054906101000a900473ffffffffffffffffffffffffffffffffffffffff16908060020160009054906101000a900473ffffffffffffffffffffffffffffffffffffffff16908060030154908060040154908060050154908060060154908060070154908060080160009054906101000a900460ff16905089565b6000151560008381548110610c4457fe5b906000526020600020906009020160080160009054906101000a900460ff16151514610ca5576040517f08c379a0000000000000000000000000000000000000000000000000000000008152600401610c9c90611a31565b60405180910390fd5b60008281548110610cb257fe5b906000526020600020906009020160030154811015610d06576040517f08c379a0000000000000000000000000000000000000000000000000000000008152600401610cfd90611a11565b60405180910390fd5b8060008381548110610d1457fe5b9060005260206000209060090201600401600082825401925050819055508060008381548110610d4057fe5b9060005260206000209060090201600301819055503360008381548110610d6357fe5b906000526020600020906009020160010160006101000a81548173ffffffffffffffffffffffffffffffffffffffff021916908373ffffffffffffffffffffffffffffffffffffffff16021790555080600260003373ffffffffffffffffffffffffffffffffffffffff1673ffffffffffffffffffffffffffffffffffffffff168152602001908152602001600020600082825401925050819055505050565b60006001151560008381548110610e1657fe5b906000526020600020906009020160080160009054906101000a900460ff16151514610e77576040517f08c379a0000000000000000000000000000000000000000000000000000000008152600401610e6e906119f1565b60405180910390fd5b60008281548110610e8457fe5b9060005260206000209060090201600301549050919050565b60018181548110610eaa57fe5b9060005260206000209060090201600091509050806000018054600181600116156101000203166002900480601f016020809104026020016040519081016040528092919081815260200182805460018160011615610100020316600290048015610f565780601f10610f2b57610100808354040283529160200191610f56565b820191906000526020600020905b815481529060010190602001808311610f3957829003601f168201915b5050505050908060010160009054906101000a900473ffffffffffffffffffffffffffffffffffffffff16908060020160009054906101000a900473ffffffffffffffffffffffffffffffffffffffff16908060030154908060040154908060050154908060060154908060070154908060080160009054906101000a900460ff16905089565b6000600454905090565b8260008581548110610ff557fe5b906000526020600020906009020160050181905550816000858154811061101857fe5b906000526020600020906009020160060181905550806000858154811061103b57fe5b90600052602060002090600902016007018190555050505050565b60606000806000806000806000888154811061106e57fe5b90600052602060002090600902016000016000898154811061108c57fe5b90600052602060002090600902016003015460008a815481106110ab57fe5b90600052602060002090600902016005015460008b815481106110ca57fe5b90600052602060002090600902016006015460008c815481106110e957fe5b9060005260206000209060090201600701548c60008e8154811061110957fe5b906000526020600020906009020160080160009054906101000a900460ff16868054600181600116156101000203166002900480601f0160208091040260200160405190810160405280929190818152602001828054600181600116156101000203166002900480156111bd5780601f10611192576101008083540402835291602001916111bd565b820191906000526020600020905b8154815290600101906020018083116111a057829003601f168201915b505050505096509650965096509650965096509650919395979092949650565b60026020528060005260406000206000915090505481565b828054600181600116156101000203166002900490600052602060002090601f016020900481019282601f1061122e578054855561126b565b8280016001018555821561126b57600052602060002091601f016020900482015b8281111561126a57825482559160010191906001019061124f565b5b50905061127891906113f0565b5090565b50805460018160011615610100020316600290046000825580601f106112a257506112c1565b601f0160209004906000526020600020908101906112c091906113f0565b5b50565b8154818355818111156112f1576009028160090283600052602060002091820191016112f09190611415565b5b505050565b60405180610120016040528060608152602001600073ffffffffffffffffffffffffffffffffffffffff168152602001600073ffffffffffffffffffffffffffffffffffffffff16815260200160008152602001600081526020016000815260200160008152602001600081526020016000151581525090565b828054600181600116156101000203166002900490600052602060002090601f016020900481019282601f106113b157805160ff19168380011785556113df565b828001600101855582156113df579182015b828111156113de5782518255916020019190600101906113c3565b5b5090506113ec91906113f0565b5090565b61141291905b8082111561140e5760008160009055506001016113f6565b5090565b90565b6114cb91905b808211156114c75760008082016000611434919061127c565b6001820160006101000a81549073ffffffffffffffffffffffffffffffffffffffff02191690556002820160006101000a81549073ffffffffffffffffffffffffffffffffffffffff0219169055600382016000905560048201600090556005820160009055600682016000905560078201600090556008820160006101000a81549060ff02191690555060090161141b565b5090565b90565b6000813590506114dd81611b99565b92915050565b6000813590506114f281611bb0565b92915050565b600082601f83011261150957600080fd5b813561151c61151782611a99565b611a6c565b9150808252602083016020830185838301111561153857600080fd5b611543838284611b46565b50505092915050565b60008135905061155b81611bc7565b92915050565b60006020828403121561157357600080fd5b6000611581848285016114ce565b91505092915050565b600080600080600060a086880312156115a257600080fd5b600086013567ffffffffffffffff8111156115bc57600080fd5b6115c8888289016114f8565b95505060206115d98882890161154c565b94505060406115ea8882890161154c565b93505060606115fb8882890161154c565b925050608061160c8882890161154c565b9150509295509295909350565b60006020828403121561162b57600080fd5b60006116398482850161154c565b91505092915050565b6000806040838503121561165557600080fd5b60006116638582860161154c565b9250506020611674858286016114e3565b9150509250929050565b6000806040838503121561169157600080fd5b600061169f8582860161154c565b92505060206116b08582860161154c565b9150509250929050565b600080600080608085870312156116d057600080fd5b60006116de8782880161154c565b94505060206116ef8782880161154c565b93505060406117008782880161154c565b92505060606117118782880161154c565b91505092959194509250565b61172681611afe565b82525050565b61173581611aec565b82525050565b61174481611b10565b82525050565b600061175582611ad0565b61175f8185611adb565b935061176f818560208601611b55565b61177881611b88565b840191505092915050565b600061178e82611ac5565b6117988185611adb565b93506117a8818560208601611b55565b6117b181611b88565b840191505092915050565b60006117c9601983611adb565b91507f41756374696f6e206d75737420626520636f6d706c65746564000000000000006000830152602082019050919050565b6000611809602583611adb565b91507f426964206d7573742062652067726561746572207468616e207374617274696e60008301527f67206269640000000000000000000000000000000000000000000000000000006020830152604082019050919050565b600061186f601683611adb565b91507f41756374696f6e206d75737420626520616374697665000000000000000000006000830152602082019050919050565b6118ab81611b3c565b82525050565b60006020820190506118c6600083018461172c565b92915050565b60006020820190506118e1600083018461173b565b92915050565b600060e0820190508181036000830152611901818a61174a565b905061191060208301896118a2565b61191d60408301886118a2565b61192a60608301876118a2565b61193760808301866118a2565b61194460a08301856118a2565b61195160c083018461173b565b98975050505050505050565b6000610120820190508181036000830152611978818c611783565b9050611987602083018b61171d565b611994604083018a61171d565b6119a160608301896118a2565b6119ae60808301886118a2565b6119bb60a08301876118a2565b6119c860c08301866118a2565b6119d560e08301856118a2565b6119e361010083018461173b565b9a9950505050505050505050565b60006020820190508181036000830152611a0a816117bc565b9050919050565b60006020820190508181036000830152611a2a816117fc565b9050919050565b60006020820190508181036000830152611a4a81611862565b9050919050565b6000602082019050611a6660008301846118a2565b92915050565b6000604051905081810181811067ffffffffffffffff82111715611a8f57600080fd5b8060405250919050565b600067ffffffffffffffff821115611ab057600080fd5b601f19601f8301169050602081019050919050565b600081519050919050565b600081519050919050565b600082825260208201905092915050565b6000611af782611b1c565b9050919050565b6000611b0982611b1c565b9050919050565b60008115159050919050565b600073ffffffffffffffffffffffffffffffffffffffff82169050919050565b6000819050919050565b82818337600083830152505050565b60005b83811015611b73578082015181840152602081019050611b58565b83811115611b82576000848401525b50505050565b6000601f19601f8301169050919050565b611ba281611aec565b8114611bad57600080fd5b50565b611bb981611afe565b8114611bc457600080fd5b50565b611bd081611b3c565b8114611bdb57600080fd5b5056fea365627a7a72315820fc356142b5441ca59ae4f6f5a45d109b33b4916f0232162df3f8919b24d1a6d86c6578706572696d656e74616cf564736f6c63430005100040",
  "source": "pragma solidity >=0.4.22 <0.7.0;\npragma experimental ABIEncoderV2;\n\ncontract AuctionHouse {\n\n    struct Auction {\n        string itemName;\n        address payable leadingBidder;\n        address payable auctionCreator;\n        uint bid;\n        uint total;\n\tuint h;\n\tuint m;\n\tuint s;\n        bool completed;\n    }\n\n    Auction[] public auctions;\n\n    Auction[] public pastAuctions;\n\n    mapping(address => uint) public bidders;\n\n    mapping(address => bool) public auctionWinners;\n\n    uint public auctionCount;\n\n    address public manager;\n\n\n    constructor() public {\n        manager = msg.sender;\n    }\n\n    function createAuction(string memory name, uint bidStart, uint shours, uint sminutes, uint sseconds) public {\n        //establishes timestamp on the auction\n        Auction memory newAuction = Auction({\n            itemName: name,\n            leadingBidder: msg.sender,\n            auctionCreator: msg.sender,\n            bid: bidStart,\n            total: 0,\n\t    h: shours,\n\t    m: sminutes,\n\t    s: sseconds,\n            completed: false\n        });\n\n        auctions.push(newAuction);\n        auctionCount++;\n    }\n\n    function setAuctionWinner(uint auctionID, address payable winner) public {\n        require(auctions[auctionID].completed == false, 'Auction must be active');\n        auctions[auctionID].leadingBidder = winner;     //the current leading bidder will be the winner if the auction has expired\n        auctionWinners[winner] = true;\n        auctions[auctionID].completed = true;\n\tpastAuctions.push(auctions[auctionID]);\n\tauctions[auctionID] = auctions[auctions.length - 1];\n\tdelete auctions[auctions.length - 1];\n\tauctions.length--;\n\tauctionCount--;\n    }\n\n    function getLastSoldVal(uint auctionID) public view returns (uint) {\n        require(auctions[auctionID].completed == true, 'Auction must be completed');\n        return auctions[auctionID].bid;   //the current state of highest bid is the last winning bid\n    }\n\n    function viewPreviousAuction(uint auctionID) public view returns(string memory name, uint bid, uint hour, uint minute, uint second, uint id, bool completed) {\n        return (auctions[auctionID].itemName, auctions[auctionID].bid, auctions[auctionID].h, auctions[auctionID].m, auctions[auctionID].s, auctionID, auctions[auctionID].completed);\n    }\n\n    function getAuctionCount() public view returns(uint) {\n    \treturn auctionCount;\n    }\n\n    function placeBid(uint auctionID, uint bidValue) public payable {\n        require(auctions[auctionID].completed == false, 'Auction must be active');\n        require(bidValue >= auctions[auctionID].bid, 'Bid must be greater than starting bid');\n\n        auctions[auctionID].total += bidValue;\n        auctions[auctionID].bid = bidValue;\n        auctions[auctionID].leadingBidder = msg.sender;\n        bidders[msg.sender] += bidValue;\n    }\n\n    function updateTime(uint auctionID, uint hs, uint ms, uint ss) public {\n\tauctions[auctionID].h = hs;\n\tauctions[auctionID].m = ms;\n\tauctions[auctionID].s = ss;\n    }\n}\n",
  "sourcePath": "/home/j/decentralized-auction-app/src/auction/contracts/AuctionHouse.sol",
  "compiler": {
    "name": "solc",
    "version": "0.5.16+commit.9c3226ce.Emscripten.clang"
  },
  "schemaVersion": "3.3.2",
  "updatedAt": "2020-12-15T21:50:41.259Z",
  "networkType": "ethereum",
  "devdoc": {
    "methods": {}
  },
  "userdoc": {
    "methods": {}
  }
}