{
  "contractName": "AuctionHouse",
  "abi": [
    {
      "inputs": [],
      "payable": false,
      "stateMutability": "nonpayable",
      "type": "constructor"
    },
    {
      "constant": true,
      "inputs": [],
      "name": "auctionCount",
      "outputs": [
        {
          "internalType": "uint256",
          "name": "",
          "type": "uint256"
        }
      ],
      "payable": false,
      "stateMutability": "view",
      "type": "function"
    },
    {
      "constant": true,
      "inputs": [
        {
          "internalType": "address",
          "name": "",
          "type": "address"
        }
      ],
      "name": "auctionWinners",
      "outputs": [
        {
          "internalType": "bool",
          "name": "",
          "type": "bool"
        }
      ],
      "payable": false,
      "stateMutability": "view",
      "type": "function"
    },
    {
      "constant": true,
      "inputs": [
        {
          "internalType": "uint256",
          "name": "",
          "type": "uint256"
        }
      ],
      "name": "auctions",
      "outputs": [
        {
          "internalType": "string",
          "name": "itemName",
          "type": "string"
        },
        {
          "internalType": "address payable",
          "name": "leadingBidder",
          "type": "address"
        },
        {
          "internalType": "address payable",
          "name": "auctionCreator",
          "type": "address"
        },
        {
          "internalType": "uint256",
          "name": "bid",
          "type": "uint256"
        },
        {
          "internalType": "uint256",
          "name": "total",
          "type": "uint256"
        },
        {
          "internalType": "uint256",
          "name": "h",
          "type": "uint256"
        },
        {
          "internalType": "uint256",
          "name": "m",
          "type": "uint256"
        },
        {
          "internalType": "uint256",
          "name": "s",
          "type": "uint256"
        },
        {
          "internalType": "bool",
          "name": "completed",
          "type": "bool"
        }
      ],
      "payable": false,
      "stateMutability": "view",
      "type": "function"
    },
    {
      "constant": true,
      "inputs": [
        {
          "internalType": "address",
          "name": "",
          "type": "address"
        }
      ],
      "name": "bidders",
      "outputs": [
        {
          "internalType": "uint256",
          "name": "",
          "type": "uint256"
        }
      ],
      "payable": false,
      "stateMutability": "view",
      "type": "function"
    },
    {
      "constant": true,
      "inputs": [],
      "name": "manager",
      "outputs": [
        {
          "internalType": "address",
          "name": "",
          "type": "address"
        }
      ],
      "payable": false,
      "stateMutability": "view",
      "type": "function"
    },
    {
      "constant": true,
      "inputs": [
        {
          "internalType": "uint256",
          "name": "",
          "type": "uint256"
        }
      ],
      "name": "pastAuctions",
      "outputs": [
        {
          "internalType": "string",
          "name": "itemName",
          "type": "string"
        },
        {
          "internalType": "address payable",
          "name": "leadingBidder",
          "type": "address"
        },
        {
          "internalType": "address payable",
          "name": "auctionCreator",
          "type": "address"
        },
        {
          "internalType": "uint256",
          "name": "bid",
          "type": "uint256"
        },
        {
          "internalType": "uint256",
          "name": "total",
          "type": "uint256"
        },
        {
          "internalType": "uint256",
          "name": "h",
          "type": "uint256"
        },
        {
          "internalType": "uint256",
          "name": "m",
          "type": "uint256"
        },
        {
          "internalType": "uint256",
          "name": "s",
          "type": "uint256"
        },
        {
          "internalType": "bool",
          "name": "completed",
          "type": "bool"
        }
      ],
      "payable": false,
      "stateMutability": "view",
      "type": "function"
    },
    {
      "constant": false,
      "inputs": [
        {
          "internalType": "string",
          "name": "name",
          "type": "string"
        },
        {
          "internalType": "uint256",
          "name": "bidStart",
          "type": "uint256"
        },
        {
          "internalType": "uint256",
          "name": "shours",
          "type": "uint256"
        },
        {
          "internalType": "uint256",
          "name": "sminutes",
          "type": "uint256"
        },
        {
          "internalType": "uint256",
          "name": "sseconds",
          "type": "uint256"
        }
      ],
      "name": "createAuction",
      "outputs": [],
      "payable": false,
      "stateMutability": "nonpayable",
      "type": "function"
    },
    {
      "constant": false,
      "inputs": [
        {
          "internalType": "uint256",
          "name": "auctionID",
          "type": "uint256"
        },
        {
          "internalType": "address payable",
          "name": "winner",
          "type": "address"
        }
      ],
      "name": "setAuctionWinner",
      "outputs": [],
      "payable": false,
      "stateMutability": "nonpayable",
      "type": "function"
    },
    {
      "constant": true,
      "inputs": [
        {
          "internalType": "uint256",
          "name": "auctionID",
          "type": "uint256"
        }
      ],
      "name": "getLastSoldVal",
      "outputs": [
        {
          "internalType": "uint256",
          "name": "",
          "type": "uint256"
        }
      ],
      "payable": false,
      "stateMutability": "view",
      "type": "function"
    },
    {
      "constant": true,
      "inputs": [
        {
          "internalType": "uint256",
          "name": "auctionID",
          "type": "uint256"
        }
      ],
      "name": "viewPreviousAuction",
      "outputs": [
        {
          "internalType": "string",
          "name": "name",
          "type": "string"
        },
        {
          "internalType": "uint256",
          "name": "bid",
          "type": "uint256"
        },
        {
          "internalType": "uint256",
          "name": "hour",
          "type": "uint256"
        },
        {
          "internalType": "uint256",
          "name": "minute",
          "type": "uint256"
        },
        {
          "internalType": "uint256",
          "name": "second",
          "type": "uint256"
        },
        {
          "internalType": "uint256",
          "name": "id",
          "type": "uint256"
        },
        {
          "internalType": "bool",
          "name": "completed",
          "type": "bool"
        }
      ],
      "payable": false,
      "stateMutability": "view",
      "type": "function"
    },
    {
      "constant": true,
      "inputs": [],
      "name": "getAuctionCount",
      "outputs": [
        {
          "internalType": "uint256",
          "name": "",
          "type": "uint256"
        }
      ],
      "payable": false,
      "stateMutability": "view",
      "type": "function"
    },
    {
      "constant": false,
      "inputs": [
        {
          "internalType": "uint256",
          "name": "auctionID",
          "type": "uint256"
        },
        {
          "internalType": "uint256",
          "name": "bidValue",
          "type": "uint256"
        }
      ],
      "name": "placeBid",
      "outputs": [],
      "payable": true,
      "stateMutability": "payable",
      "type": "function"
    },
    {
      "constant": false,
      "inputs": [
        {
          "internalType": "uint256",
          "name": "auctionID",
          "type": "uint256"
        },
        {
          "internalType": "uint256",
          "name": "hs",
          "type": "uint256"
        },
        {
          "internalType": "uint256",
          "name": "ms",
          "type": "uint256"
        },
        {
          "internalType": "uint256",
          "name": "ss",
          "type": "uint256"
        }
      ],
      "name": "updateTime",
      "outputs": [],
      "payable": false,
      "stateMutability": "nonpayable",
      "type": "function"
    }
  ],
  "bytecode": "0x608060405234801561001057600080fd5b5033600560006101000a81548173ffffffffffffffffffffffffffffffffffffffff021916908373ffffffffffffffffffffffffffffffffffffffff160217905550611982806100616000396000f3fe6080604052600436106100c25760003560e01c806357c90de51161007f578063c44e664011610059578063c44e66401461028f578063e8fd3b0f146102ba578063f3464d76146102e3578063fcc8f79314610326576100c2565b806357c90de5146101f157806390cb03931461020d578063a729e1a11461024a576100c2565b80630a71450b146100c75780632ad715731461010457806339c2607d1461012f578063481c6a7514610158578063498aa49b14610183578063571a26a0146101ac575b600080fd5b3480156100d357600080fd5b506100ee60048036036100e991908101906112c2565b610363565b6040516100fb919061162d565b60405180910390f35b34801561011057600080fd5b50610119610383565b60405161012691906117b2565b60405180910390f35b34801561013b57600080fd5b50610156600480360361015191908101906113a3565b610389565b005b34801561016457600080fd5b5061016d610756565b60405161017a9190611612565b60405180910390f35b34801561018f57600080fd5b506101aa60048036036101a591908101906112eb565b61077c565b005b3480156101b857600080fd5b506101d360048036036101ce919081019061137a565b61093f565b6040516101e8999897969594939291906116be565b60405180910390f35b61020b600480360361020691908101906113df565b610a7f565b005b34801561021957600080fd5b50610234600480360361022f919081019061137a565b610c4f565b60405161024191906117b2565b60405180910390f35b34801561025657600080fd5b50610271600480360361026c919081019061137a565b610ce9565b604051610286999897969594939291906116be565b60405180910390f35b34801561029b57600080fd5b506102a4610e29565b6040516102b191906117b2565b60405180910390f35b3480156102c657600080fd5b506102e160048036036102dc919081019061141b565b610e33565b005b3480156102ef57600080fd5b5061030a6004803603610305919081019061137a565b610ea2565b60405161031d9796959493929190611648565b60405180910390f35b34801561033257600080fd5b5061034d600480360361034891908101906112c2565b611029565b60405161035a91906117b2565b60405180910390f35b60036020528060005260406000206000915054906101000a900460ff1681565b60045481565b600015156000838154811061039a57fe5b906000526020600020906009020160080160009054906101000a900460ff161515146103fb576040517f08c379a00000000000000000000000000000000000000000000000000000000081526004016103f290611792565b60405180910390fd5b806000838154811061040957fe5b906000526020600020906009020160010160006101000a81548173ffffffffffffffffffffffffffffffffffffffff021916908373ffffffffffffffffffffffffffffffffffffffff1602179055506001600360008373ffffffffffffffffffffffffffffffffffffffff1673ffffffffffffffffffffffffffffffffffffffff16815260200190815260200160002060006101000a81548160ff0219169083151502179055506001600083815481106104bf57fe5b906000526020600020906009020160080160006101000a81548160ff0219169083151502179055506001600083815481106104f657fe5b90600052602060002090600902019080600181540180825580915050906001820390600052602060002090600902016000909192909190915060008201816000019080546001816001161561010002031660029004610556929190611041565b506001820160009054906101000a900473ffffffffffffffffffffffffffffffffffffffff168160010160006101000a81548173ffffffffffffffffffffffffffffffffffffffff021916908373ffffffffffffffffffffffffffffffffffffffff1602179055506002820160009054906101000a900473ffffffffffffffffffffffffffffffffffffffff168160020160006101000a81548173ffffffffffffffffffffffffffffffffffffffff021916908373ffffffffffffffffffffffffffffffffffffffff16021790555060038201548160030155600482015481600401556005820154816005015560068201548160060155600782015481600701556008820160009054906101000a900460ff168160080160006101000a81548160ff0219169083151502179055505050506000828154811061069457fe5b9060005260206000209060090201600080820160006106b391906110c8565b6001820160006101000a81549073ffffffffffffffffffffffffffffffffffffffff02191690556002820160006101000a81549073ffffffffffffffffffffffffffffffffffffffff0219169055600382016000905560048201600090556005820160009055600682016000905560078201600090556008820160006101000a81549060ff02191690555050600460008154809291906001900391905055505050565b600560009054906101000a900473ffffffffffffffffffffffffffffffffffffffff1681565b610784611110565b6040518061012001604052808781526020013373ffffffffffffffffffffffffffffffffffffffff1681526020013373ffffffffffffffffffffffffffffffffffffffff1681526020018681526020016000815260200185815260200184815260200183815260200160001515815250905060008190806001815401808255809150509060018203906000526020600020906009020160009091929091909150600082015181600001908051906020019061084092919061118a565b5060208201518160010160006101000a81548173ffffffffffffffffffffffffffffffffffffffff021916908373ffffffffffffffffffffffffffffffffffffffff16021790555060408201518160020160006101000a81548173ffffffffffffffffffffffffffffffffffffffff021916908373ffffffffffffffffffffffffffffffffffffffff160217905550606082015181600301556080820151816004015560a0820151816005015560c0820151816006015560e082015181600701556101008201518160080160006101000a81548160ff021916908315150217905550505050600460008154809291906001019190505550505050505050565b6000818154811061094c57fe5b9060005260206000209060090201600091509050806000018054600181600116156101000203166002900480601f0160208091040260200160405190810160405280929190818152602001828054600181600116156101000203166002900480156109f85780601f106109cd576101008083540402835291602001916109f8565b820191906000526020600020905b8154815290600101906020018083116109db57829003601f168201915b5050505050908060010160009054906101000a900473ffffffffffffffffffffffffffffffffffffffff16908060020160009054906101000a900473ffffffffffffffffffffffffffffffffffffffff16908060030154908060040154908060050154908060060154908060070154908060080160009054906101000a900460ff16905089565b6000151560008381548110610a9057fe5b906000526020600020906009020160080160009054906101000a900460ff16151514610af1576040517f08c379a0000000000000000000000000000000000000000000000000000000008152600401610ae890611792565b60405180910390fd5b60008281548110610afe57fe5b906000526020600020906009020160030154811015610b52576040517f08c379a0000000000000000000000000000000000000000000000000000000008152600401610b4990611772565b60405180910390fd5b8060008381548110610b6057fe5b9060005260206000209060090201600401600082825401925050819055508060008381548110610b8c57fe5b9060005260206000209060090201600301819055503360008381548110610baf57fe5b906000526020600020906009020160010160006101000a81548173ffffffffffffffffffffffffffffffffffffffff021916908373ffffffffffffffffffffffffffffffffffffffff16021790555080600260003373ffffffffffffffffffffffffffffffffffffffff1673ffffffffffffffffffffffffffffffffffffffff168152602001908152602001600020600082825401925050819055505050565b60006001151560008381548110610c6257fe5b906000526020600020906009020160080160009054906101000a900460ff16151514610cc3576040517f08c379a0000000000000000000000000000000000000000000000000000000008152600401610cba90611752565b60405180910390fd5b60008281548110610cd057fe5b9060005260206000209060090201600301549050919050565b60018181548110610cf657fe5b9060005260206000209060090201600091509050806000018054600181600116156101000203166002900480601f016020809104026020016040519081016040528092919081815260200182805460018160011615610100020316600290048015610da25780601f10610d7757610100808354040283529160200191610da2565b820191906000526020600020905b815481529060010190602001808311610d8557829003601f168201915b5050505050908060010160009054906101000a900473ffffffffffffffffffffffffffffffffffffffff16908060020160009054906101000a900473ffffffffffffffffffffffffffffffffffffffff16908060030154908060040154908060050154908060060154908060070154908060080160009054906101000a900460ff16905089565b6000600454905090565b8260008581548110610e4157fe5b9060005260206000209060090201600501819055508160008581548110610e6457fe5b9060005260206000209060090201600601819055508060008581548110610e8757fe5b90600052602060002090600902016007018190555050505050565b606060008060008060008060008881548110610eba57fe5b906000526020600020906009020160000160008981548110610ed857fe5b90600052602060002090600902016003015460008a81548110610ef757fe5b90600052602060002090600902016005015460008b81548110610f1657fe5b90600052602060002090600902016006015460008c81548110610f3557fe5b9060005260206000209060090201600701548c60008e81548110610f5557fe5b906000526020600020906009020160080160009054906101000a900460ff16868054600181600116156101000203166002900480601f0160208091040260200160405190810160405280929190818152602001828054600181600116156101000203166002900480156110095780601f10610fde57610100808354040283529160200191611009565b820191906000526020600020905b815481529060010190602001808311610fec57829003601f168201915b505050505096509650965096509650965096509650919395979092949650565b60026020528060005260406000206000915090505481565b828054600181600116156101000203166002900490600052602060002090601f016020900481019282601f1061107a57805485556110b7565b828001600101855582156110b757600052602060002091601f016020900482015b828111156110b657825482559160010191906001019061109b565b5b5090506110c4919061120a565b5090565b50805460018160011615610100020316600290046000825580601f106110ee575061110d565b601f01602090049060005260206000209081019061110c919061120a565b5b50565b60405180610120016040528060608152602001600073ffffffffffffffffffffffffffffffffffffffff168152602001600073ffffffffffffffffffffffffffffffffffffffff16815260200160008152602001600081526020016000815260200160008152602001600081526020016000151581525090565b828054600181600116156101000203166002900490600052602060002090601f016020900481019282601f106111cb57805160ff19168380011785556111f9565b828001600101855582156111f9579182015b828111156111f85782518255916020019190600101906111dd565b5b509050611206919061120a565b5090565b61122c91905b80821115611228576000816000905550600101611210565b5090565b90565b60008135905061123e816118fa565b92915050565b60008135905061125381611911565b92915050565b600082601f83011261126a57600080fd5b813561127d611278826117fa565b6117cd565b9150808252602083016020830185838301111561129957600080fd5b6112a48382846118a7565b50505092915050565b6000813590506112bc81611928565b92915050565b6000602082840312156112d457600080fd5b60006112e28482850161122f565b91505092915050565b600080600080600060a0868803121561130357600080fd5b600086013567ffffffffffffffff81111561131d57600080fd5b61132988828901611259565b955050602061133a888289016112ad565b945050604061134b888289016112ad565b935050606061135c888289016112ad565b925050608061136d888289016112ad565b9150509295509295909350565b60006020828403121561138c57600080fd5b600061139a848285016112ad565b91505092915050565b600080604083850312156113b657600080fd5b60006113c4858286016112ad565b92505060206113d585828601611244565b9150509250929050565b600080604083850312156113f257600080fd5b6000611400858286016112ad565b9250506020611411858286016112ad565b9150509250929050565b6000806000806080858703121561143157600080fd5b600061143f878288016112ad565b9450506020611450878288016112ad565b9350506040611461878288016112ad565b9250506060611472878288016112ad565b91505092959194509250565b6114878161185f565b82525050565b6114968161184d565b82525050565b6114a581611871565b82525050565b60006114b682611831565b6114c0818561183c565b93506114d08185602086016118b6565b6114d9816118e9565b840191505092915050565b60006114ef82611826565b6114f9818561183c565b93506115098185602086016118b6565b611512816118e9565b840191505092915050565b600061152a60198361183c565b91507f41756374696f6e206d75737420626520636f6d706c65746564000000000000006000830152602082019050919050565b600061156a60258361183c565b91507f426964206d7573742062652067726561746572207468616e207374617274696e60008301527f67206269640000000000000000000000000000000000000000000000000000006020830152604082019050919050565b60006115d060168361183c565b91507f41756374696f6e206d75737420626520616374697665000000000000000000006000830152602082019050919050565b61160c8161189d565b82525050565b6000602082019050611627600083018461148d565b92915050565b6000602082019050611642600083018461149c565b92915050565b600060e0820190508181036000830152611662818a6114ab565b90506116716020830189611603565b61167e6040830188611603565b61168b6060830187611603565b6116986080830186611603565b6116a560a0830185611603565b6116b260c083018461149c565b98975050505050505050565b60006101208201905081810360008301526116d9818c6114e4565b90506116e8602083018b61147e565b6116f5604083018a61147e565b6117026060830189611603565b61170f6080830188611603565b61171c60a0830187611603565b61172960c0830186611603565b61173660e0830185611603565b61174461010083018461149c565b9a9950505050505050505050565b6000602082019050818103600083015261176b8161151d565b9050919050565b6000602082019050818103600083015261178b8161155d565b9050919050565b600060208201905081810360008301526117ab816115c3565b9050919050565b60006020820190506117c76000830184611603565b92915050565b6000604051905081810181811067ffffffffffffffff821117156117f057600080fd5b8060405250919050565b600067ffffffffffffffff82111561181157600080fd5b601f19601f8301169050602081019050919050565b600081519050919050565b600081519050919050565b600082825260208201905092915050565b60006118588261187d565b9050919050565b600061186a8261187d565b9050919050565b60008115159050919050565b600073ffffffffffffffffffffffffffffffffffffffff82169050919050565b6000819050919050565b82818337600083830152505050565b60005b838110156118d45780820151818401526020810190506118b9565b838111156118e3576000848401525b50505050565b6000601f19601f8301169050919050565b6119038161184d565b811461190e57600080fd5b50565b61191a8161185f565b811461192557600080fd5b50565b6119318161189d565b811461193c57600080fd5b5056fea365627a7a72315820562bf40ddddc150735de19ad6cae5945e1e02dceb462462caecc05512d0897066c6578706572696d656e74616cf564736f6c63430005100040",
  "source": "pragma solidity >=0.4.22 <0.7.0;\npragma experimental ABIEncoderV2;\n\ncontract AuctionHouse {\n\n    struct Auction {\n        string itemName;\n        address payable leadingBidder;\n        address payable auctionCreator;\n        uint bid;\n        uint total;\n\tuint h;\n\tuint m;\n\tuint s;\n        bool completed;\n    }\n\n    Auction[] public auctions;\n\n    Auction[] public pastAuctions;\n\n    mapping(address => uint) public bidders;\n\n    mapping(address => bool) public auctionWinners;\n\n    uint public auctionCount;\n\n    address public manager;\n\n\n    constructor() public {\n        manager = msg.sender;\n    }\n\n    function createAuction(string memory name, uint bidStart, uint shours, uint sminutes, uint sseconds) public {\n        //establishes timestamp on the auction\n        Auction memory newAuction = Auction({\n            itemName: name,\n            leadingBidder: msg.sender,\n            auctionCreator: msg.sender,\n            bid: bidStart,\n            total: 0,\n\t    h: shours,\n\t    m: sminutes,\n\t    s: sseconds,\n            completed: false\n        });\n\n        auctions.push(newAuction);\n        auctionCount++;\n    }\n\n    function setAuctionWinner(uint auctionID, address payable winner) public {\n        require(auctions[auctionID].completed == false, 'Auction must be active');\n        auctions[auctionID].leadingBidder = winner;     //the current leading bidder will be the winner if the auction has expired\n        auctionWinners[winner] = true;\n        auctions[auctionID].completed = true;\n\tpastAuctions.push(auctions[auctionID]);\n\tdelete auctions[auctionID];\n\tauctionCount--;\n    }\n\n    function getLastSoldVal(uint auctionID) public view returns (uint) {\n        require(auctions[auctionID].completed == true, 'Auction must be completed');\n        return auctions[auctionID].bid;   //the current state of highest bid is the last winning bid\n    }\n\n    function viewPreviousAuction(uint auctionID) public view returns(string memory name, uint bid, uint hour, uint minute, uint second, uint id, bool completed) {\n        return (auctions[auctionID].itemName, auctions[auctionID].bid, auctions[auctionID].h, auctions[auctionID].m, auctions[auctionID].s, auctionID, auctions[auctionID].completed);\n    }\n\n    function getAuctionCount() public view returns(uint) {\n    \treturn auctionCount;\n    }\n\n    function placeBid(uint auctionID, uint bidValue) public payable {\n        require(auctions[auctionID].completed == false, 'Auction must be active');\n        require(bidValue >= auctions[auctionID].bid, 'Bid must be greater than starting bid');\n\n        auctions[auctionID].total += bidValue;\n        auctions[auctionID].bid = bidValue;\n        auctions[auctionID].leadingBidder = msg.sender;\n        bidders[msg.sender] += bidValue;\n    }\n\n    function updateTime(uint auctionID, uint hs, uint ms, uint ss) public {\n\tauctions[auctionID].h = hs;\n\tauctions[auctionID].m = ms;\n\tauctions[auctionID].s = ss;\n    }\n}\n",
  "sourcePath": "/home/j/decentralized-auction-app/src/auction/contracts/AuctionHouse.sol",
  "compiler": {
    "name": "solc",
    "version": "0.5.16+commit.9c3226ce.Emscripten.clang"
  },
  "schemaVersion": "3.3.2",
  "updatedAt": "2020-12-15T17:40:26.555Z",
  "networkType": "ethereum",
  "devdoc": {
    "methods": {}
  },
  "userdoc": {
    "methods": {}
  }
}